S01700006578616D2062656C6C20737974656D2E7372656351
S11300000C942A000C943C000C943C000C943C008E
S11300100C943C000C943C000C943C000C943C006C
S11300200C943C000C943C000C943C000C943C005C
S11300300C943C000C943C000C943C000C943C004C
S11300400C943C000C943C000C943C000C943C003C
S11300500C943C0011241FBECFE5D4E0DEBFCDBF1D
S113006020E0A0E6B0E001C01D92A336B207E1F79C
S11300700E94BE010C9409020C94000088BBAB984A
S1130080AC98AD9A83ED90E30197F1F700C00000BE
S1130090AD9883ED90E30197F1F700C00000089557
S11300A08A3021F480EC0E943E00089588BBAB9A0C
S11300B0AC98AD9A87E893E10197F1F700C000008E
S11300C0AD9887E893E10197F1F700C00000089527
S11300D0982F907F98BBAB98AC98AD9AE3EDF0E382
S11300E03197F1F700C00000AD98E3EDF0E33197EC
S11300F0F1F700C00000F0E18F9FC001112488BB1C
S1130100AB98AC98AD9A83ED90E30197F1F700C0FA
S11301100000AD98E3EDF0E33197F1F700C0000083
S11301200895CF93C62F843081F482E00E94680042
S113013088E20E9468008C2F0E94680081E00E947F
S11301403E0084E0809360000CC088E30E943E007F
S11301508C2F0E943E0081E00E943E0088E0809344
S11301606000CF91089594EA96BF06B607FEFDCFCE
S113017091B1987F9830D9F590ED93B994E896BFF2
S113018006B607FEFDCF91B1987F983191F583B9FA
S113019084E886BF06B607FEFDCF81B1887F88322A
S11301A051F584EA86BF06B607FEFDCF81B1887F8C
S11301B0803119F581ED83B984E886BF06B607FE60
S11301C0FDCF81B1887F8034D1F484E886BF06B640
S11301D007FEFDCF83B18093620084E986BF89EF77
S11301E090E00197F1F700C0000085E5089581E0F3
S11301F0089582E0089583E0089585E0089586E0F7
S11302000895CF93C62F0E943E008C2F82958F7045
S113021080630E9450008C2F8F7080630E94500076
S1130220CF910895A89AA99A08958FEF87BBA39AAE
S1130230A49AA59A6CE088E00E9491000895CF9258
S1130240DF92EF92FF920F931F93CF93DF93CDB77B
S1130250DEB764970FB6F894DEBF0FBECDBF8C0136
S1130260C62ED72E7A0182E00E94B30080936100EB
S11302706091620080E80E9401018AE30E945000BC
S113028011230CF461C0909162009F70AC2DBD2DC0
S1130290FE01319620E030E041E08D91891302C0E7
S11302A0408301C010822F5F3F4F3196021713071E
S11302B0A4F737C08191811105C08C91813011F46C
S11302C0929A01C092981196E017F10799F780E08D
S11302D00E94B3008093610084E00E94B300809385
S11302E061006091620080EC0E9401018FE20E9433
S11302F0500085E00E94B300809361006091620029
S113030083EC0E9401018FE20E94500086E00E946B
S1130310B300809361006091620086EC0E94010149
S11303201EC081E00E94B30080936100609162006E
S113033083E80E940101F7018FEFE81AF80A0E0D15
S11303401F1DDE011196B6CF81E00E94B300809399
S113035061006091620083E80E940101B8CF649655
S11303600FB6F894DEBF0FBECDBFDF91CF911F91C2
S11303700F91FF90EF90DF90CF900895CF93DF938C
S1130380CDB7DEB7A8970FB6F894DEBF0FBECDBFCA
S11303900E9412010E9415018A9A84E1DE011196DD
S11303A0FD01982F11929A95E9F7AE014B5E5F4FCC
S11303B0FA0111928A95E9F785E1898321E02D8B71
S11303C08A8390E19E8B8B8332EF3F8B8C83288FC3
S11303D08D838BE0898F86E18E839A8FFA01CE011B
S11303E04B96208122232CF43C9131503C93245C85
S11303F0208331961196E817F90799F7AE014B5E01
S11304005F4FBE016F5F7F4F85E090E00E941F0148
S1090410F5CFF894FFCFC4
S9030000FC
